S02B00002F323032342D656374662D696E7365637572652D6578616D706C652F6170706C69636174696F6E5F48
S3151001000000000220091001108D0E01104710011079
S31510010010491001104B1001104D1001100000000085
S315100100200000000000000000000000004F10011049
S31510010030511001100000000053100110551001104D
S31510010040591001105B1001105D1001105F100110A5
S315100100506110011063100110651001106710011075
S31510010060691001106B1001106D1001106F10011045
S315100100707110011073100110751001107710011015
S31510010080791001107B1001107D1001107F100110E5
S3151001009081100110831001108510011087100110B5
S315100100A0250E01102D0E01108D1001108F1001104B
S315100100B09110011093100110951001109710011055
S315100100C0991001109B1001109D1001109F10011025
S315100100D0A1100110A3100110A5100110A7100110F5
S315100100E0A9100110AB100110AD100110AF100110C5
S315100100F0B1100110B3100110B5100110B710011095
S31510010100B9100110BB100110BD100110BF10011064
S31510010110C1100110C3100110C5100110C710011034
S31510010120C9100110CB100110CD100110CF10011004
S31510010130D1100110D3100110D5100110D7100110D4
S31510010140D9100110DB100110DD100110DF100110A4
S31510010150E1100110E3100110E5100110E710011074
S31510010160E9100110EB100110ED100110EF10011044
S31510010170F1100110F3100110F5100110F710011014
S31510010180F9100110FB100110FD100110FF100110E4
S3151001019001110110031101100511011007110110B0
S315100101A0091101100B1101100D1101100F11011080
S315100101B01111011013110110151101101711011050
S315100101C0191101101B1101101D1101101F11011020
S315100101D021110110231101102511011027110110F0
S315100101E000000000000000000000000000000000F8
S315100101F000000000000000000000000000000000E8
S3151001020000488047091001100348044B834202D06D
S31510010210034B03B118477047CC0B0020CC0B0020C1
S31510010220000000000548064B1B1AD90F01EBA3016C
S31510010230491002D0034B03B118477047CC0B00206D
S31510010240CC0B00200000000010B5064C237843B9F2
S31510010250FFF7DAFF044B13B10448AFF30080012313
S31510010260237010BD000C0020000000006079021000
S3151001027008B5054B1BB105490548AFF30080BDE82C
S315100102800840FFF7CFBF00BF00000000040C00209C
S31510010290607902100000000010B562B61A4C00F029
S315100102A09FFC88221948214600F0B4FC184B22689D
S315100102B09A421CD0174805F003F8174805F060F864
S315100102C0164804F0FDFF164B1B68986805F04EF9A9
S315100102D009A1D1E900010AA3D3E90023C4E9000168
S315100102E0C4E9022309488822214600F095FCBDE89D
S315100102F0104000F0EBBB00BFEFBEADDE0200000008
S315100103002077889921778899200C002000E0071022
S31510010310EFBEADDEC8030210D4030210F0030210C3
S31510010320900500202DE9F047DFF8DCA0374EDAF80A
S315100103300430ADF5007DDBB1DFF8D490DFF8D48061
S31510010340354F0AF104050024484604F0B9FF55F863
S31510010350041F404604F0B4FF384604F0B1FF336879
S31510010360986805F003F9DAF804300134A342EBD8A2
S31510010370274DDFF8A880284F08241FE08DF800E1EB
S3151001038000F0A8FB034601336946204612D000F05F
S31510010390BBFB0346002B28460CDD04F091FF0099A8
S315100103A0404604F08DFF384604F08AFF336898689A
S315100103B005F0DCF80134E4B2782C13D0A4F118035B
S315100103C0DBB2DFF85CC04FF0010E1E2B40AA71465E
S315100103D020462CFA03FCD1D81CF0010FCED0744460
S315100103E0E4B2EBE70F4804F06BFF0F4804F0C8FFC7
S315100103F0094804F065FF3368986805F0B7F80020DE
S315100104000DF5007DBDE8F087200C00209005002039
S31510010410F403021000040210F00302100C0402107F
S315100104200100014018040210240402102DE9F041C4
S31510010430244F7B68ADF5007D002B37D03D1D00267E
S315100104404FF0020803E07B680136B3422ED955F806
S31510010450040F00F03DFB012140AA04468DF80081EE
S3151001046000F038FB034601336946204623D000F0DD
S315100104704BFB01301FD0009A2B689A42E3D002360B
S31510010480114804F01DFF114857F8261004F018FF03
S315100104900F4804F015FF0F4B1B68986805F066F8B6
S315100104A04FF0FF300DF5007DBDE8F08100200DF510
S315100104B0007DBDE8F081044804F002FF064804F00F
S315100104C05FFFE5E7200C00202C04021058040210EF
S315100104D0F003021090050020380402102DE9F04FA8
S315100104E0294F7B68ADF5017DA3B3DFF8A080DFF856
S315100104F0A090DFF8A0B0DFF8A0A03E1D002556F8A9
S31510010500040F00F0E5FA0323012140AA04468DF8F1
S31510010510003100F0DFFA034601336946204605F142
S3151001052001051CD000F0F0FA03460133484616D0F7
S3151001053004F0C6FE31686A46584604F0C1FE5046BC
S3151001054004F0BEFED8F80030986805F00FF87B6805
S31510010550AB42D4D800200DF5017DBDE8F08F0F48D0
S3151001056004F0AEFE0E4804F00BFF0B4804F0A8FE93
S31510010570D8F80030986804F0F9FF4FF0FF300DF508
S31510010580017DBDE8F08F00BF200C002090050020F2
S31510010590F403021078040210F00302102C04021066
S315100105A08404021030B5ADF5017D044600F090FAD1
S315100105B0042340AA012105468DF8003100F08AFA7C
S315100105C0013026D06946284600F09EFA013020D027
S315100105D0184804F075FE21461748184C04F070FEB1
S315100105E0174804F06DFE2368986804F0BFFF1148A0
S315100105F004F066FE6946134804F062FE104804F0E2
S315100106005FFE2368986804F0B1FF00200DF5017DA7
S3151001061030BD0D4804F054FE0C4804F0B1FE0848F4
S3151001062004F04EFE054B1B68986804F09FFF4FF0CF
S31510010630FF30EBE7F4030210A0040210900500202E
S31510010640F0030210AC0402102C040210B0040210C4
S3151001065008B5134C002000F0A3FC204600F096FECE
S31510010660012000F09DFC204600F090FE022000F0D3
S3151001067097FC204600F08AFE002000F09DFC2046E3
S3151001068000F084FE012000F097FC204600F07EFE6B
S31510010690022000F091FC204600F078FEDAE700BF58
S315100106A020A1070010B58EB0194801A900F052FA21
S315100106B0184B019A9A4212D0174804F001FE1748B6
S315100106C004F05EFE164804F0FBFD164B1B68986895
S315100106D04FF0FF3404F04AFF20460EB010BDBDF8AE
S315100106E0082043F233339A42E6D19DF80A40002C92
S315100106F0E2D10D4804F0E4FD0C4804F041FE08482F
S3151001070004F0DEFD074B1B68986804F02FFFE3E742
S31510010710CC040210353934322C040210F0040210C4
S31510010720F003021090050020C8030210E004021025
S3151001073010B58EB0154801A900F00CFA144901A89C
S3151001074004F04EFC88B90446124804F0B9FD12486B
S3151001075004F016FE114804F0B3FD114B1B6898689E
S3151001076004F004FF20460EB010BD0E4804F0A8FD9B
S315100107700D4804F005FE094804F0A2FD084B1B685C
S3151001078098684FF0FF3404F0F1FEEBE70005021014
S3151001079010050210C803021024050210F0030210FE
S315100107A0900500202C0402103405021010B5FFF735
S315100107B03DFEF8B92648274C04F082FD264804F080
S315100107C0DFFD264804F07CFD2368986804F0CEFE10
S315100107D0FFF784FEF0B1224804F072FD214804F0BF
S315100107E0CFFD1E4804F06CFD2368BDE810409868E3
S315100107F004F0BCBE1A4804F063FD1B4804F0C0FDAA
S31510010800164804F05DFD134B1B68BDE8104098684F
S3151001081004F0ACBE154804F053FD1549154804F013
S315100108204FFD0E4804F04CFD2368986804F09EFEB7
S31510010830114804F045FD114804F0A2FD074804F0E3
S315100108403FFD2368986804F091FEFFF701FF00BF92
S31510010850C80302109005002068050210F00302106B
S315100108602C0402108405021044050210F403021030
S31510010870A4050210B805021018040210C0050210D2
S3151001088070B590B0FFF754FF08B110B070BD0446B3
S3151001089003A92F482F4ECDE9014400F05BF901AAB7
S315100108A02D4903A802F0CAFA2C4803A900F052F9FF
S315100108B0294902AA03A802F0C1FA7168002935D0A4
S315100108C0029D331D204602E0013088422ED053F896
S315100108D0042FAA42F8D1831C019A214846F82320F5
S315100108E000F096F91B491E481E4C882200F094F917
S315100108F01D4804F0E5FCDDE901211C4804F0E0FC8B
S315100109001B4804F0DDFC2368986804F02FFE194893
S3151001091004F0D6FC184804F033FD154804F0D0FC59
S315100109202368986804F022FE10B070BD134804F0D5
S31510010930C7FC0299124804F0C3FC0D4804F0C0FC30
S31510010940084B1B68986804F011FE10B070BD00BF0B
S31510010950C8050210200C0020DC050210E00502106B
S3151001096000E0071090050020C8030210F4050210DC
S31510010970F003021018040210140602102C040210BF
S315100109801C06021000B58FB0FFF78CFEC8B90E48D1
S3151001099001A900F0DFF80D496A4601A802F04EFAE6
S315100109A00098FFF7FFFD0A4804F08AFC094804F095
S315100109B0E7FC094804F084FC084B1B68986804F0AE
S315100109C0D5FD0FB05DF804FB54060210DC050210CC
S315100109D01804021064060210F0030210900500209C
S315100109E080B59AB0FFF758FC2C48DFF8B4902D4D1E
S315100109F02D4C2E4E2E4FDFF8BC80DFF8BCA004F034
S31510010A005FFC2E4804F0BCFC2D4804F059FCD9F8C3
S31510010A100030986804F0AAFD01A9284600F09AF85A
S31510010A20019BA34218D0019BB3421CD0019BBB4230
S31510010A3020D0019B434523D0224804F041FC01A953
S31510010A40214804F03DFC1E4804F03AFCD9F8003068
S31510010A50986804F08BFDDFE79DF80830002BE2D192
S31510010A60FFF760FCD8E79DF80830002BDED1FFF7C1
S31510010A709DFED1E7029B5345DBD1FFF701FFCBE783
S31510010A80BDF8082047F273439A42D5D19DF80A3032
S31510010A90002BD1D1FFF776FFBEE700BFF40302109A
S31510010AA0900500208C0602106C697374626F6F7466
S31510010AB07265706C61747465616365006C06021011
S31510010AC0F00302102C040210BC06021000F0B0B89C
S31510010AD0C0B2704770B504460D46164600F02CF9A3
S31510010AE000280DDB33462A460021204600F072F914
S31510010AF0002805DB0121204600F002F9C01770BD60
S31510010B004FF0FF3070BD00BF70B504460E4602E0CF
S31510010B100CD000F03BFC204600F0AEF800284FF058
S31510010B203200F5DA4FF0FF35284670BD204600F049
S31510010B30C5F8051EF6DB3346EAB20321204600F05E
S31510010B4031F90028EEDB0121204600F00FF9284685
S31510010B5070BD00BF70B505461048114E0C4604F025
S31510010B60AFFB284604F0ACFB0E4804F0A9FB336832
S31510010B70986804F0FBFC002004F0F8FC0A4804F025
S31510010B809FFB3368986804F0F1FC204603F072FE6F
S31510010B90BDE87040054804F0F3BB00BFC80302105E
S31510010BA090050020F0030210D8060210500602101C
S31510010BB0094A536AD90703D5516A21F001015162D5
S31510010BC09B0700D47047044A0448536A23F0020372
S31510010BD0536204F0D5BB00BF00900240E406021038
S31510010BE008B50849172000F00BFC074B4FF400021B
S31510010BF01A604FF4407000F05FFDBDE808400348ED
S31510010C0001F08ABDB10B011000E100E000A0024025
S31510010C1016F096BE00F04EBD0B4611461A4600F070
S31510010C2047BD00BF014800F09DBF00BF00E0014075
S31510010C3010B50C480022012100F028FF044660B9C6
S31510010C400949084800F06CFF0849242000F0D8FB38
S31510010C50074B10225A60204610BD064804F090FB3F
S31510010C60204610BD00E00140A0860100250C0110B0
S31510010C7000E100E00C07021010B50F498AB00424F8
S31510010C80CDE90210002301228DF806400DF107016E
S31510010C900DF1060402A8CDE90442CDE90612CDE90B
S31510010CA008338DF8073000F057FF0028A8BF9DF8CC
S31510010CB007000AB010BD00BF00E0014010B50F4992
S31510010CC08AB00524CDE90210002301228DF80640D1
S31510010CD00DF107010DF1060402A8CDE90442CDE993
S31510010CE00612CDE908338DF8073000F035FF0028DC
S31510010CF0A8BF9DF807000AB010BD00BF00E0014073
S31510010D0030B58BB005460B4A0292012000238DF8AF
S31510010D10040001AA022402A8CDE90424CDE9063370
S31510010D20CDE908338DF80510039500F015FF0BB0CA
S31510010D3030BD00BF00E0014010B58AB004460A4834
S31510010D408DF8051000230222029001A902A8CDE90F
S31510010D500412CDE90633CDE908338DF80420039446
S31510010D6000F0FAFE0AB010BD00E0014030B58BB0BC
S31510010D7005460B4A0292042000230DEB00028DF862
S31510010D800400022402A8CDE90424CDE90633CDE9F5
S31510010D9008338DF80510039500F0DEFE0BB030BD5B
S31510010DA000E0014030B58BB0094D8DF80710039066
S31510010DB00DF107010120CDE90410002402A8CDE9A7
S31510010DC00632CDE90844029500F0C6FE0BB030BDDF
S31510010DD000E0014070B5CAB08C46054619460DF1C2
S31510010DE0250014468DF824C004F0C8FC084B019365
S31510010DF009AE0023013401A8CDE90533CDE9073346
S31510010E0002950494039600F0A7FE4AB070BD00BF88
S31510010E1000E0014008B50346014804F051FAFEE727
S31510010E2028070210002000F0A7BD00BF012000F026
S31510010E30A3BD00BF10B5002000F02CFB012000F06F
S31510010E4029FB402000F026FB0D4B022218684FF4B7
S31510010E50E13101F0BBFC041E03DB00F0B9F80446D6
S31510010E6008B1204610BD00F07BF804460028F8D1E1
S31510010E70044B05484322DA6000F088FA204610BD7B
S31510010E800000002000440040400D030000BF7047E1
S31510010E904FF0FF30704700BF4FF0FF30704700BF73
S31510010EA04FF0FF30704700BF4FF0FF30704700BF63
S31510010EB0F8B5E0B9002A19DD104D0E468F180C460B
S31510010EC002E0BB420FD01C46284601F075FDC1B2A7
S31510010ED02170284601F072FD22780D2A04F10103D2
S31510010EE0EFD10A232370C6F10106A019F8BD02F04D
S31510010EF02FF8092303604FF0FF30F8BD002004409E
S31510010F00F8B5431E012B21D8002A174612DD531EB0
S31510010F10124E4C1ECD1814F8013F0A2B0CD00F4857
S31510010F2001F050FD0028FAD02178304601F046FD37
S31510010F30AC42F0D13846F8BD084801F043FD00280F
S31510010F40FAD00D21304601F039FDE8E702F000F83C
S31510010F50092303604FF0FF30F8BD00BF00200440A5
S31510010F60F8B50D4B1F68A7B100250C4C2E46D4E9D8
S31510010F70000100F0CDFC204600F0D0FB0135002821
S31510010F8018BF6FF00706BD4204F10C04EFD13046CD
S31510010F90F8BD3E463046F8BD440702104807021018
S31510010FA0044B00EB400003EB800253F8200051681C
S31510010FB000F0C8BC48070210044B00EB400003EBDD
S31510010FC0800253F82000516800F0A2BC48070210B5
S31510010FD0F8B50B4B1F6887B100240A4D26462846E3
S31510010FE000F09CFB0134002818BF6FF00706BC42C5
S31510010FF005F10C05F3D13046F8BD3E463046F8BD35
S315100110006C0702107007021047488546474880470B
S3151001101080B94749474A484B9B1A03DD043BC858D8
S31510011020D050FBDC4549464A00209142BCBF41F8ED
S31510011030040BFAE7434880474348804743488047B3
S31510011040FFF7FEFFFEE7FEE7FEE7FEE7FEE7FEE738
S31510011050FEE7FEE7FEE7FEE7FEE7FEE7FEE7FEE751
S31510011060FEE7FEE7FEE7FEE7FEE7FEE7FEE7FEE741
S31510011070FEE7FEE7FEE7FEE7FEE7FEE7FEE7FEE731
S31510011080FEE7FEE7FEE7FEE7FEE7FEE7FEE7FEE721
S31510011090FEE7FEE7FEE7FEE7FEE7FEE7FEE7FEE711
S315100110A0FEE7FEE7FEE7FEE7FEE7FEE7FEE7FEE701
S315100110B0FEE7FEE7FEE7FEE7FEE7FEE7FEE7FEE7F1
S315100110C0FEE7FEE7FEE7FEE7FEE7FEE7FEE7FEE7E1
S315100110D0FEE7FEE7FEE7FEE7FEE7FEE7FEE7FEE7D1
S315100110E0FEE7FEE7FEE7FEE7FEE7FEE7FEE7FEE7C1
S315100110F0FEE7FEE7FEE7FEE7FEE7FEE7FEE7FEE7B1
S31510011100FEE7FEE7FEE7FEE7FEE7FEE7FEE7FEE7A0
S31510011110FEE7FEE7FEE7FEE7FEE7FEE7FEE7FEE790
S31510011120FEE7FEE7FEE7FEE700000220F5110110DB
S31510011130287A021000000020CC0B0020000C0020A1
S3151001114064170020F9110110254F0110E109011052
S315100111500B4A08B50346106828B10A4903448B4265
S3151001116007D8136008BD08480649106003448B422E
S31510011170F7D901F0EDFE0C2303604FF0FF3008BDE7
S31510011180A80C002000F00120681700204FF08043C2
S315100111909A6802F46062B2F5206F20D011D9B2F5C7
S315100111A0406F17D00F4B1049B2F5606F18BF0B4641
S315100111B04FF080420D499268C2F38212D3400B6000
S315100111C0704752B1084947F23053B2F5C06F18BF94
S315100111D00B46EDE74FF40043EAE7054BE8E74FF41A
S315100111E0E103E5E7C068780400E1F505641700201E
S315100111F0008793030020704710B50A4C0A4BA36071
S315100112000A4801F087FAD4F8883043F47003C4F819
S315100112108830BFF34F8FBFF36F8FFFF7B7FFFFF71D
S3151001122009FE10BD00ED00E00000011000A0024013
S3151001123038B54FF0E02318499C691A6922F48032B7
S315100112400A601A69D20723D46FF07F4405225C61C4
S315100112504FF080759C611A61104B114A1968002371
S31510011260A0FB01010EF002FF0E4BB0FBF5F205FBE0
S31510011270120084421A6007D81A6801321A602C4487
S31510011280094B201A186038BD074B201A186038BD53
S315100112905D690135E0E700BFB00C0020641700203E
S315100112A040420F0004000020B40C002010B50C4C75
S315100112B00C4B22681960002A0FDC08B9002010BDFA
S315100112C0FFF7B6FF2368002BF8DD4FF0E022002070
S315100112D0136943F00203136110BD6FF0050010BDD1
S315100112E004000020AC0C0020F8B5174C2368002B25
S315100112F01EDB26682EBB154B4FF0E0251B68AA692D
S315100113009A421ED8124F3B685BB16FF00F00984797
S31510011310104B3E601A682A614FF0FF33236000209C
S31510011320F8BD0C4A4FF0FF3312682A612360F6E7C5
S31510011330074C2368002BF2D000209847002020602C
S31510011340F8BD6FF00500F8BD04000020B40C0020B4
S31510011350AC0C0020B00C002010B5094C236823B149
S315100113606FF00F00984700232360064A064B10685A
S315100113704FF0E0214FF0FF3208611A6010BD00BF37
S31510011380AC0C0020B00C00200400002038B5184C1D
S315100113902268002A29DC00B938BDFFF749FF4FF052
S315100113A0E02202E01369DB031BD42368002BF9DC6E
S315100113B0104B1A684FF0E0218B699342FCD80E4D01
S315100113C02B6823B16FF00F00984700232B600B4B4E
S315100113D04FF0E022196811614FF0FF3300202360AE
S315100113E038BD2368013B2360DFE76FF0050038BD88
S315100113F004000020B40C0020AC0C0020B00C00201E
S31510011400F8B50F4E0F4BB2689A4204460D4600F1DD
S31510011410100707D018460C494FF4F07204F0AEF9D4
S315100114200346B060002C43F8275008DB074B6209CE
S31510011430012004F01F0400FA04F443F82240F8BD19
S3151001144000ED00E0000E00200000011000E100E0B8
S315100114503F2809D90E4A4038D168C0B2012303FA90
S3151001146000F00843D06070471F284FF0804208D91A
S315100114702038916CC0B2012303FA00F0084390643E
S315100114807047516A012303FA00F00843506270470E
S31510011490000008403F280AD910494038CB68C0B22D
S315100114A0012202FA00F023EA0000C86070471F28E3
S315100114B04FF0804109D920388B6CC0B2012202FA53
S315100114C000F023EA0000886470474B6A012202FA91
S315100114D000F023EA00004862704700BF0000084090
S315100114E010B507280AD8DFE800F00C09092333479D
S315100114F05B04BDE81040364800F010B96FF00200E9
S3151001150010BD4FF080440021A36843F48023A360EB
S315100115104FF47A70FFF7CAFE03E0FFF7E5FE0630D7
S3151001152052D1A3685901F8D5FFF716FF002010BD57
S3151001153000214FF47A70FFF7B9FE4FF0804403E0B3
S31510011540FFF7D2FE06303FD1A3689A00ECD4F7E735
S315100115504FF080440021A36843F40023A3604FF4A5
S315100115607A70FFF7A3FE03E0FFF7BEFE06302BD11C
S31510011570A3681B01F8D5D7E74FF080440021A36873
S3151001158043F48013A3604FF47A70FFF78FFE03E0E4
S31510011590FFF7AAFE063017D1A368D800C4D4F7E71F
S315100115A04FF080440021A36843F40033A3604FF445
S315100115B07A70FFF77BFE03E0FFF796FE063003D144
S315100115C0A3689B01B0D4F7E76FF0090010BD00BF07
S315100115D0880702103F280AD94038114AC0B20123A0
S315100115E003FA00F0906093681842FCD170471F28E7
S315100115F00BD92038C0B201234FF0804203FA00F014
S315100116005064536C1842FCD1704701234FF080424D
S3151001161003FA00F0506053681842FCD1704700BFBE
S3151001162000000840820736D100F17043B3F5002F50
S315100116300A46844620F00F0128D201F17043B3F512
S31510011640002F2BD3A1F18451B1F5804F23D243F64C
S31510011650F0730CEA030303F5002300B5114883B0B8
S31510011660614616F079F94FF08042136843F0400352
S31510011670136013685B06FCD44FF080520A4B126854
S3151001168001921B68019303B05DF804FBA0F184532A
S31510011690B3F5804FD1D36FF002007047034B0CEABC
S315100116A00303DAE70090024000200010F0FF070064
S315100116B016F04EB916F048B900F000B810F44073A0
S315100116C006D0054A11684A6A134300204B627047D7
S315100116D06FF00200704700BF08000020C10710B567
S315100116E0044608D4A2070BD463070ED42046BDE8DE
S315100116F0104001F04DBB0020FFF7CCFEA207F3D539
S315100117000120FFF7C7FE6307F0D54020FFF7C2FEA1
S315100117102046BDE8104001F03BBB00BF38B57A4BFF
S3151001172005689D42044659D003F580539D421CD04D
S3151001173003F5EE2303F580639D4200F0A68003F5C1
S3151001174000739D4213D00020FFF7C8FF6268217A0B
S31510011750284600F037F9A0B9637A042B00F2D1803C
S31510011760DFE803F0897B6D5E4A000220ECE74068F2
S31510011770C30719D5237A002B32D0012B02D06FF073
S31510011780100038BD614A136A43F002031362637A8B
S31510011790012B7CD0022B00F08880002BEFD15B4A05
S315100117A0136A43F00403136210F00200E9D0237A9E
S315100117B0E3B1012BE3D1554A136A43F020031362B7
S315100117C0607A01287FD0022800F08C800028D6D1BB
S315100117D04E4A136A43F04003136238BD0120B3E742
S315100117E04A4A136A23F002031362D0E7474A136A7F
S315100117F023F020031362E3E72B6E626823EA0203E8
S315100118002B666B6E13436B66D5F8B83023EA020369
S31510011810C5F8B830A17A2846BDE8384000F0BAB804
S315100118202B6E626813432B666B6E23EA02036B669B
S31510011830D5F8B83023EA0203C5F8B830EAE72B6EBB
S31510011840626823EA02032B666B6E13436B66D5F847
S31510011850B8301343C5F8B830DCE72B6E6268134312
S315100118602B666B6E23EA02036B66D5F8B830134309
S31510011870C5F8B830CEE72B6E626823EA02032B66F1
S315100118806B6E23EA02036B66C4E704205CE71F4B09
S315100118901A6A22F004021A621A6A22F002021A6203
S315100118A01A6A42F001021A627EE7184B1A6A22F08E
S315100118B004021A621A6A22F002021A621A6A22F0E3
S315100118C001021A6270E7114B1A6A22F040021A627B
S315100118D01A6A22F020021A621A6A42F010020020D5
S315100118E01A6238BD094B1A6A22F040021A621A6A44
S315100118F022F020021A621A6A22F0100200201A62DD
S3151001190038BD6FF0020038BD00800040006C004009
S315100119100A4A90420B4601D000F034B8CA0704D5E2
S3151001192007490A6A42F001020A629B0705D5044A71
S31510011930136A43F01003136270477047000608409C
S31510011940006C00400A4A90420B4601D000F01CB8C8
S31510011950CA0704D507490A6A22F001020A629B07DF
S3151001196005D5044A136A23F01003136270477047B2
S3151001197000060840006C004001F01CBA00F006B8E1
S3151001198000F006B8C1617047016270478164704703
S31510011990006C704769B1012907D1D0F8C030002118
S315100119A01A43C0F8C020084670476FF00201084676
S315100119B07047D0F8C03023EA0202C0F8C0200846AA
S315100119C0704700BF0346006B104318635A60052920
S315100119D02AD8DFE801F00A12141B2203C3F8882063
S315100119E000209A67DA669A6070475A615A60002039
S315100119F01A67DA67C3F8882070471A61F6E7C3F8E1
S31510011A0088200020DA671A679A607047C3F8882021
S31510011A100020DA67DA669A607047C3F888200020DA
S31510011A209A671A679A6070476FF00200704700BF95
S31510011A3000F006B908B5124B98420DD0114B9842D9
S31510011A4012D0114B984217D13820FFF701FD3420DF
S31510011A50FFF7C0FD002008BD0D20FFF7F9FC10208F
S31510011A60FFF7B8FD002008BD1C20FFF7F1FC202070
S31510011A70FFF7B0FD002008BD6FF0010008BD00BFE3
S31510011A8000D0014000E0014000F00140C0B370B544
S31510011A9004460D461646FFF7CDFF1B4B9C4212D04E
S31510011AA01A4B9C421CD01A4B9C4226D13820FFF768
S31510011AB0F1FC1848FFF732FE324629462046BDE8AA
S31510011AC0704000F055B80D20FFF7E4FC1248FFF7FF
S31510011AD025FE324629462046BDE8704000F048B83A
S31510011AE01C20FFF7D7FC0D48FFF718FE3246294692
S31510011AF02046BDE8704000F03BB86FF0010070BDA4
S31510011B004FF0FF30704700BF00D0014000E00140A8
S31510011B1000F00140AC07021094070210A007021052
S31510011B20034B994201D800F0A5B86FF01000704729
S31510011B3040E1330000F0F0B800F0FEB800F00EB945
S31510011B4000F01AB900F030B900F046B900F04CB9FE
S31510011B5000F052B900F054B900F0BEB900F092BAD3
S31510011B6000F0A0BA014B196800F0A0BD0C000020CE
S31510011B70F8B5002858D00F46102115460446FFF730
S31510011B80E9FF064608B13046F8BD236843F0010364
S31510011B9023602046FFF7D8FF2046FFF7D7FF022123
S31510011BA02046FFF7DDFF06212046FFF7D7FFD7B105
S31510011BB023681F4A43F00203944223602ED01D4B23
S31510011BC09C420ED01C4884420CBF02244FF0FF34B5
S31510011BD01A4B04EB440403EBC4040123636030463F
S31510011BE0F8BD0124F4E73A4629462046FFF720FFBF
S31510011BF00F4B9C4214D003F580539C4212D00E49D0
S31510011C008C420CBF02214FF0FF310C4B01EB41040A
S31510011C1003EBC404002666603046F8BD3446D7E7A8
S31510011C203946F2E70121F0E74FF0FF36ABE700BF87
S31510011C3000D0014000E0014000F0014004100020F6
S31510011C400346A0B16AB9B1F5806F0DD27F29C2647E
S31510011C5084BF4FF40042C264C26C11430020D964A0
S31510011C6070476FF0100070476FF0020070474FF029
S31510011C70FF307047002841D010B4224AA1F57423D1
S31510011C806FF410742344934214D31F4B994230D8E6
S31510011C901E4B1B685B08B3FBF1F149088B1EB3F5AC
S31510011CA0FF7F01F1FF3124D841635DF8044B816355
S31510011CB0FFF740BF154B164C1B685B08B3FBF1F1E0
S31510011CC04A00A4FB01C14908A4FB0242013952088A
S31510011CD00F2902F1FF320CDC0F2A0ADC0902D2B2FB
S31510011CE089B21143C16302680A4942F40042026093
S31510011CF0D1E76FF002005DF8044B70474FF0FF30EB
S31510011D00704700BF009F240040E133006417002094
S31510011D10ABAAAAAA801A06000649436B826B086809
S31510011D20C2F30802C3F3080313444008B0FBF3F0EF
S31510011D30704700BF64170020034658B1006B1A6B39
S31510011D4010F0010016BF42F0020242F0010200201B
S31510011D501A6370474FF0FF30704700BF48B1036BED
S31510011D6043F004030363036B13F00403FBD118461A
S31510011D7070474FF0FF30704798B191B17AB1002397
S31510011D8001F1FF3C06E0C16A0133C9B29A420CF86F
S31510011D90031004D041688907F5D5184670471046D7
S31510011DA070474FF0FF30704798B191B17AB1002367
S31510011DB001F1FF3C06E001339A421CF80310C9B247
S31510011DC0C16204D04168C906F5D518467047104658
S31510011DD070474FF0FF307047C36943F08003C3610A
S31510011DE0C3691B06FCD47047436A43F08003436200
S31510011DF0436A1B06FCD4704781600261704700BFBD
S31510011E00002865D0036843F001032DE9F041036012
S31510011E100768036843F480630E46044607F4806737
S31510011E200360002943D000252BE0FFF7AFFA2368A2
S31510011E3023F0800323600A20FFF7A8FA236813F41E
S31510011E4000784FF00A002BD1FFF7A0FA236843F070
S31510011E50800323600A20FFF799FA23689A054FF049
S31510011E600A001DD5FFF792FA236843F04003236059
S31510011E700A20FFF78BFA2368DB0525D40135AE421C
S31510011E8015D00A20FFF782FA236823F04003236056
S31510011E900A20FFF77BFA2368D9054FF00A00C4D54B
S31510011EA02368013543F0C003AE422360E9D16FF0D8
S31510011EB008001FB9236823F480632360236823F085
S31510011EC001032360BDE8F0814046002FF6D1F1E70A
S31510011ED04FF0FF30704700BF2DE9F041D0E90043C4
S31510011EE07F2B00F2C980664B9C42054608D003F54C
S31510011EF080539C4204D003F580539C4240F0B68037
S31510011F002368980740F1B58007226FF07F4120467C
S31510011F10FFF71EFE2046FFF719FE2046FFF714FEB7
S31510011F206A690023E360636142BBEA686B685B0020
S31510011F30E362236B43F0010300262363202704E0A9
S31510011F40A36813F4FE4F11D1EA68964219D2A36819
S31510011F509906F5D5A968921B31442046FFF7F2FD83
S31510011F60A760A36813F4FE4F0644EDD0EE60204639
S31510011F70FFF7E4FD6FF00800BDE8F081EA68002A7A
S31510011F80D4D1002211212046FFF7E2FD6B69002B07
S31510011F904DD0B3F5807F88BF002323622046FFF71B
S31510011FA0CBFD266B16F00206FBD16B686A695B00E6
S31510011FB043F00103E362002A39D010274FF00108DC
S31510011FC01DE0A36813F4FE4329D1A26812F0010F94
S31510011FD06A6912D0B24210D2911BB1F5807F8CBFC3
S31510011FE0236221626B68216B5B0043F0010341F0B0
S31510011FF002012163C4F80880E362964217D2A368EE
S3151001200013F0110FDDD02969921B31442046FFF7D9
S3151001201097FDA760A36813F4FE430644D5D06E61FD
S315100120202046FFF78BFD6FF00800BDE8F081AB6924
S315100120308BB1236B43F002032363A368DB07FCD543
S315100120404123A360A36813F4FE4F0CBF00206FF069
S315100120500800BDE8F081236B43F004032363A368F2
S315100120605A06FCD5A368DB07E7D5E9E76FF002004E
S31510012070EFE76FF00600ECE76FF01000E9E700BF3D
S3151001208000D001408269D2B28A42034607D3C2699F
S3151001209022F4706242EA01210020D96170476FF083
S315100120A0020070478269C2F307228A42034607D3A8
S315100120B0426A22F4706242EA012100205962704795
S315100120C06FF00200704700BF2DE9F84F054668B35F
S315100120D0012800F0B580022800F043810026DFF8C0
S315100120E0E8B2B4685BF820A014F4FE4440F02081F5
S315100120F0DFF8D892DAF80C2059F82560DFF8D0828B
S31510012100B24258F82570134630D8DAF81410B9428D
S3151001211048D9A36813F0110F38D1B24200F0EC8000
S3151001212049F8256048F82570BDE8F88FA34CDFF80B
S3151001213098B2A368DBF800A013F4FE4FD8D0A368B9
S31510012140A360236923612046E5606561FFF7F6FC0C
S31510012150DBF80000C36913B16FF008019847E56019
S315100121606561A368A3602369236194E0A368990656
S3151001217000F19680E36843F02003E360DAF8141067
S315100121808F42CDD2A36813F0110FC6D0CA1BDAF84D
S31510012190101020463944FFF7D3FC1023A360DAF858
S315100121A00C300744B342BBD1DAF81410B94240F0EF
S315100121B0A3800023E3606361A368A360DAF8183093
S315100121C022692261002B40F0D780236B43F0040370
S315100121D02363A36813F4FE4F784B00F0DB809C4217
S315100121E000F0018103F580539C4200F00F8103F545
S315100121F080539C420CBF02234FF0FF335BF8230040
S31510012200C369002B00F0E6806FF0080198470023A0
S31510012210E3606361A268A260684A21692161944200
S315100122200AD0674B9C4200F0DC8003F580539C4238
S315100122300CBF02234FF0FF3300224BF8232073E724
S315100122405F4CDFF884B1A368DBF804A013F4FE4FEA
S315100122503FF44EAFA368A360226922610023E360B5
S3151001226020466361FFF76AFC5BF82500C3691BB161
S315100122706FF0080198470023E3606361A368A360C8
S31510012280236923614E4B9C427BD04E4DAC420CBF11
S3151001229002254FF0FF3500234BF82530BDE8F88FA6
S315100122A0DAF80810921B31442046FFF74BFCDAF896
S315100122B00C2006442023B242A3603FF65BAFE368CD
S315100122C023F02003E3607FF459AFDAF814100029E4
S315100122D03FF46CAF236B43F0020323630123A36026
S315100122E0E368B94243F00103E3607FF65FAFA36889
S315100122F013F0110F7FF44AAFA368DB077FF510AF18
S315100123000123A3602FB9DAF804305B0043F001030F
S31510012310E362CB1BB3F5807F88BF00232362E3689A
S315100123208F4234BF43F0110323F01103E360F7E644
S31510012330B368B360336933613046F6607661FFF78F
S31510012340FDFB5BF8040CC469ECB16FF00801A04702
S31510012350F6607661B368B360336933614FF0FF3568
S3151001236099E7184CDFF860B0A368DBF808A013F4FE
S31510012370FE4F3FF4BDAE6DE7236B43F002032363BB
S3151001238027E7012587E7E4606461A368A3602369F1
S3151001239023617AE79C4233D003F580539C4237D0B0
S315100123A003F580539C420CBF02234FF0FF335BF8B9
S315100123B02300C36973B10021984728E700D0014073
S315100123C000E0014000F00140EC0F0020F80F002062
S315100123D0E00F0020E3606361A368A36023692361B2
S315100123E01FE7012328E7DBF80000C369002B7FF400
S315100123F00BAFE3606361A268A260226922611BE7E9
S31510012400DBF80000C369002BD5D1F2E70123F5E60D
S315100124100123CCE72DE9F84398460E469F4B1168E8
S315100124208768D0F8009015460B4000220446C8F87C
S315100124300020002B75D117F4FE4F40F0E580CA0637
S3151001244040F12781FB0606D51EB100220221204646
S31510012450B0471023A3602369D90706D51EB1002200
S3151001246006212046B04701232361296848F220033B
S315100124700B4200F0F180BB0606D51EB100220321E6
S315100124802046B0472023A3602369980706D51EB1BD
S31510012490002205212046B0470223236139041FD5A6
S315100124A00023C8F800301EB1424604212046B04729
S315100124B07B4A00234FF400419442A160C5E90033E1
S315100124C00AD0784B9C4200F0E28003F580539C427F
S315100124D00CBF02234FF0FF33734A002142F8231039
S315100124E07A061ED50023C8F800301EB142460421D3
S315100124F02046B0476A4A002340219442A160C5E9AB
S3151001250000330AD0674B9C4200F0BF8003F580531D
S315100125109C420CBF02234FF0FF33634A002142F85D
S3151001252023107B0211D51EB1002211462046B04759
S315100125304FF48003A3600823A3604FF40043A36004
S3151001254047F6117C0123C5E900C338020ED51EB129
S31510012550002201212046B0474FF40003A36008234F
S31510012560A3604FF620710223C5E900133A0716D569
S3151001257019F4006275D01EB1002201212046B04720
S315100125804FF480020823A2604FF40041A3604FF676
S3151001259020720223A160C5E90023BDE8F88317F470
S315100125A0FE4FFAD06FF00803C8F800301EB142464C
S315100125B004212046B04707236FF07F42A2602361B2
S315100125C0636A43F080036362636A1B06FCD4E369A2
S315100125D043F08003E361E36913F08003FBD1304AD2
S315100125E09442C5E9003309D02E4B9C4249D003F5DC
S315100125F080539C420CBF02234FF0FF332A4A00211D
S3151001260042F82310BDE8F8836FF00803C8F80030CC
S3151001261016B142460421B04707226FF07F4120468A
S31510012620FFF796FA2046FFF791FA2046FFF78CFA44
S315100126301B4A00239442C5E9003309D0194B9C4229
S3151001264021D003F580539C420CBF02234FF0FF3378
S31510012650154A002142F823106B689A077FF540AF9F
S3151001266009E716B111462046B04708234FF4000179
S31510012670A16047F61172A3600123C5E90023BDE8E5
S31510012680F8830123BAE70123E2E7012345E7012392
S3151001269022E76B68D8073FF5D5AEE7E60800C0001C
S315100126A000D0014000E00140EC0F002030B5174B7F
S315100126B0984285B0044624D003F58053984205D03C
S315100126C003F5805398421ED005B030BD0120236812
S315100126D09B0704D505B0BDE83040FFF7F5BCE568AA
S315100126E00B4B626953F82010CDE9025201AB02AAD5
S315100126F02046FFF78FFEDDE90223E260636105B034
S3151001270030BD0020E3E70220E1E700BF00D0014021
S31510012710EC0F002000F002B800F018B8D0F8003124
S31510012720012223F00103C0F80031C0F80027D0F8C8
S315100127300031DA03FBD5D0F8003143F00103C0F8BC
S315100127400031D0F80031DB03FBD57047D0F80031EA
S3151001275023F00103C0F80031704700BF08B5174BCD
S31510012760984210D0164B984215D0164B98421AD053
S31510012770154B98421FD14420FEF72CFF4420FEF73B
S3151001278067FE002008BD0B20FEF724FF0920FEF787
S315100127905FFE002008BD0C20FEF71CFF0A20FEF785
S315100127A057FE002008BD1C20FEF714FF2120FEF75E
S315100127B04FFE002008BD6FF0020008BD0020044046
S315100127C000300440004004400014084070B504462F
S315100127D00E461546FFF7C2FFA8BB022D2DD0042DBC
S315100127E018D0204B9C421BD01F4B9C422CD01F4B08
S315100127F09C4230D01E4B9C4223D11E48FEF78EFFC1
S315100128004420FEF747FE2A4631462046BDE8704071
S3151001281000F0F6B80620FEF763FE124B9C42E3D198
S315100128201548FEF77BFF0920FEF734FE2A4631468E
S315100128302046BDE8704000F0E3B80520FEF750FED3
S31510012840CFE76FF0020070BD0C48FEF767FF0A2054
S31510012850FEF720FED7E70A48FEF760FF2120FEF7B4
S3151001286019FED0E700200440003004400040044027
S3151001287000140840DC070210B8070210C407021042
S31510012880D0070210304B984210B5044616D003F506
S315100128908053984212D003F5805398420ED003F517
S315100128A07533984207D10523022A436143D0042A7E
S315100128B013D0002A3FD06FF0020010BD042AFAD0BF
S315100128C0204600F0D5F80028F7DD236843F40043CD
S315100128D0236023681B03FCD510BD02684FF48033B7
S315100128E01A4302600068B3FBF1F340F40010B1F52E
S315100128F0166F206001FB03F28CBF00200120C2F588
S3151001290080326061ABB1B2EB510F12D80F4A13612D
S31510012910106800F44030B0F5803F05D0136813F409
S31510012920403FC8D14FF4E100084B1B69B0FBF3F0EF
S31510012930C9E70133EAE74FF4E103B3FBF1F301FB16
S3151001294003F2C2F5E102DDE700200440001408405D
S31510012950124B98421CD003F58053984218D003F5B8
S315100129608053984214D003F57533984212D10368F7
S3151001297003F44033B3F5803F05D0036813F4403FA9
S3151001298008D14FF4E103064A1069B3FBF0F0704722
S3151001299000F0BCB86FF00200704700BF0020044081
S315100129A00014084000F0F0B800F00EB900F032B98A
S315100129B000F08AB900F0A4B900F008B800F012B816
S315100129C000F0BCB900F0BEB900F0C2B910B50446AA
S315100129D02046FFF7F5FF0028FAD02046BDE8104043
S315100129E0FFF7E6BF38B504460D462046FFF7EAFF66
S315100129F00028FAD029462046BDE83840FFF7DABF4D
S31510012A001A4B984270B504460D4616460BD003F57F
S31510012A108053984207D003F58053984203D003F5AB
S31510012A20753398421FD101212046FFF7CDFF00B122
S31510012A3070BD08212046FFF7B5FF0028F8D10146E1
S31510012A402046FFF7B3FF0028F2D101462046FFF7D3
S31510012A50ABFF0028ECD1324629462046FFF712FF7C
S31510012A6000EAE07070BD6FF0020070BD00200440F6
S31510012A70234B98420BD003F58053984207D003F5A8
S31510012A808053984203D003F57533984234D1052308
S31510012A90012A10B4436125D0022A16D022B16FF053
S31510012AA002005DF8044B7047164B1A685208B2FBC8
S31510012AB0F1F301FB132213B1B2EB510F00D901331C
S31510012AC05DF8044B0361FFF743BF04684FF4E1035C
S31510012AD044F40034B3FBF1F301FB03F2C2F5E10256
S31510012AE00460E8E70468084AB2FBF1F344F4803461
S31510012AF0046001FB1322DEE76FF00200704700BF8E
S31510012B000020044064170020C06878041B4B9842CB
S31510012B100BD003F58053984207D003F580539842A2
S31510012B2003D003F57533984225D1036803F4403376
S31510012B30B3F5803F14D0036813F4403F06D1104B10
S31510012B4000691B685B08B3FBF0F07047036803F478
S31510012B504033B3F5003F08D003686FF002007047A9
S31510012B60084B0069B3FBF0F0704700694FF4E103BD
S31510012B70B3FBF0F070476FF002007047002004407D
S31510012B8064170020C06878040E4A904203460BD0A1
S31510012B9002F58052904207D002F58052904203D03E
S31510012BA002F5753290420AD10539032907D81A68F8
S31510012BB022F4406242EA81210020196070476FF0C9
S31510012BC00200704700200440114B98420BD003F5C8
S31510012BD08053984207D003F58053984203D003F5EA
S31510012BE07533984202D161B1012903D06FF0020108
S31510012BF0084670470368002143F480530360084672
S31510012C007047036823F4805303600846704700BF7A
S31510012C10002004402B4A904203460BD002F5805205
S31510012C20904207D002F58052904203D002F57532D8
S31510012C30904244D1042942D8DFE801F01117253317
S31510012C4003001A6842F010021A601A6842F0200254
S31510012C501A601A6842F0400200201A6070471A681A
S31510012C6022F0100200201A6070471A6842F0100212
S31510012C701A601A6822F020021A601A6822F04002BD
S31510012C8000201A6070471A6842F010021A601A681A
S31510012C9022F020021A601A6842F0400200201A60DF
S31510012CA070471A6842F010021A601A6842F0200240
S31510012CB01A601A6822F0400200201A6070476FF0FD
S31510012CC002007047002004400C4B98420BD003F5CC
S31510012CD08053984207D003F58053984203D003F5E9
S31510012CE07533984204D14368DB0604D4006A7047F1
S31510012CF06FF0020070476FF00C007047002004401F
S31510012D000D4B98420BD003F58053984207D003F52B
S31510012D108053984203D003F57533984206D1436820
S31510012D2013F0800305D10162184670476FF0020057
S31510012D3070476FF00B007047002004404068C0F3E5
S31510012D40032070474068C0F30330C0F10800704794
S31510012D500E4A904203460BD002F58052904207D09C
S31510012D6002F58052904203D002F57532904209D194
S31510012D704A1E072A06D81A6822F00F0211430020AC
S31510012D80196070476FF00200704700BF00200440C1
S31510012D9010B5064C217831B905484FF4007202F08E
S31510012DA06FF801232370002010BD00BF4C140020C2
S31510012DB04C100020032870B5054625D8E0B9174EEA
S31510012DC03046FEF7DDFD044601463046FEF7D6FDD8
S31510012DD08CB1134E134B06EBC51603EBC515E30762
S31510012DE003D52B680BB130689847640806F10406C1
S31510012DF005F10405F3D170BD01280CD00A4E0B4B19
S31510012E00022818BF1E46DBE709490A485A22FEF76F
S31510012E1001F80026D4E7084ED2E700BF0080004033
S31510012E204C1200204C1000200004084000060840F7
S31510012E30E807021048080210009000400EB430B5A1
S31510012E409CB01FAC4FF4017254F8045BADF814201A
S31510012E500290069002F054FD039007900A480B4920
S31510012E600A9100234FF6FF7C0E9313932A462346AD
S31510012E7002A90068ADF816C0019400F06FF81CB0F5
S31510012E80BDE8304003B0704790050020B52E011003
S31510012E9010B50C46B1F90E1005F032F8002803DB17
S31510012EA0236D0344236510BDA38923F48053A381A5
S31510012EB010BD00BF002070472DE9F0410C46B1F955
S31510012EC00C101F46CB05054616460BD421F480512E
S31510012ED0A1813B46B4F90E1032462846BDE8F041B1
S31510012EE000F020B8B4F90E100223002204F0F2FF0C
S31510012EF0B4F90C10EAE700BF10B50C46B1F90E1083
S31510012F0004F0E8FFB4F90C30421C0EBF23F48053D1
S31510012F1043F480532065A38110BD00BFB1F90E1093
S31510012F2002F054BA38B50C46084D8446114620466F
S31510012F301A4600232B606446FDF7E2FF431C00D0BE
S31510012F4038BD2B68002BFBD0236038BD94140020AC
S31510012F50014B1868704700BF900500202DE9F04F0E
S31510012F60ADF5377D8A46B1F90C1002AF8C04F864C1
S31510012F7015467B6309D4DAF8643041F4005123F421
S31510012F800053AAF80C10CAF8643000231C46082214
S31510012F90194607F15800BB62A14601F071FFA84618
S31510012FA0FC637C62BC633C64834BD3F8E44001F060
S31510012FB0FDFF07F15802009203464246F86C07F1ED
S31510012FC05401A04700284CDB7B6D80440646002B3C
S31510012FD000F0A885012853D0252B5AD00028E3D01C
S31510012FE0DAF804301A46A8EB06060138002A06EB71
S31510012FF0000406F1FF3517DDDAF800306A78187823
S31510013000904203F1010305F1010140F08B85DAF8D5
S315100130100420CAF80030013A8C42CAF8042000F0A4
S315100130209B80002A0D46E7DCF86C514605F0E4FA60
S315100130300028E1D03B6C002B01F0E381BAF80C308B
S3151001304013F0400FFB6B41F0DD8123B1FB6B186868
S3151001305008B101F01FFC386C07F53577BD46BDE8A0
S31510013060F08F4FF6FD730822002107F158007B659A
S3151001307001F006FF7B6D08F10108002B00F0528567
S315100130804E4AD25C100700F15B850126252B30468E
S31510013090A6D1002498F800202546A2F1250308F1AF
S315100130A00101552B00F24986DFE813F03D0747066B
S315100130B047064706470634074706470647064706A3
S315100130C047064D064D064D064D064D064D064D0657
S315100130D04D064D064D06470647064706470647065F
S315100130E047064706580647066B00F4045806580665
S315100130F0580647064706470647066200470647062B
S31510013100FF04470647064706B5044706470647061E
S315100131104706980647064706D9064706470647064D
S3151001312047064706580647066D00F6045806580620
S315100131305806ED06E406620047061E070F07FD0650
S315100131400105FA0647064706B7045B002B07470633
S315100131504706980647065B0002354D44A5EB06095E
S3151001316022E7230740F0DE8498F80120884694E789
S31510013170220740F0D78498F8012044F002048846CB
S315100131808BE744F0010444F0400488464FF0000BED
S31510013190DAF80430002B40F34884600640F14F847E
S315100131A00BF1FF33032B00F29387DFE813F0B10223
S315100131B0F4014801090000BF24040020D9080210B7
S315100131C044F4F063F86CBB6401F0F6FE0368FB612E
S315100131D06B1EB3F5AE7F4FF0000488BF6FF4AE706F
S315100131E0C7E9044488BF05EB000C07F5B87394BF13
S315100131F04FF0000C40F25D15FB627C643C63BC61D0
S315100132009B46C7F80CC0C7F82080DAF800100A7878
S31510013210A2F12B034E2B50D8DFE813F0B7034F0062
S31510013220B7034F004F0099009D009D009D009D0022
S315100132309D009D009D009D009D004F004F004F0079
S315100132404F004F004F004F00AC033B033B033B03C2
S31510013250D903D0034F004F00BF034F004F004F005B
S315100132604F0093034F0072034F004F004F006D0341
S315100132704F004F004F005603A7034F004F004F005A
S315100132804F004F004F004F00AC033B033B033B0382
S31510013290D903D0034F004F00BF034F004F004F001B
S315100132A04F0093034F0072034F004F004F006D0301
S315100132B04F004F004F005603A703BB6C9E0568D500
S315100132C0D7F81C8098F80030934262D1C7E90154AF
S315100132D00026554606E0296091F800E098F80000AE
S315100132E086451BD118F8010FB2464C4601310136FD
S315100132F009F10109002800F0938668680138002851
S315100133006860E8DCF86C294605F076F930B9296869
S3151001331098F8000091F800E08645E3D05246AA4697
S31510013320D7E9075823462E44BC683C623446FE6CE6
S31510013330FA61994614F8011D5246304605F020F9F6
S31510013340AC42F7D1FA693C6AA9EB020923E0BB6CDE
S31510013350D90500F14E857B6C1B191AD11C46BB6C25
S3151001336023F4C073C7E911430BF8012B013DDAF8B9
S315100133700430013B002B09F10109CAF8043040F36E
S31510013380D483DAF800300133CAF80030002D7FF407
S315100133903CAFD7F820803B6B002B40F037837B6C1A
S315100133A0013B012B40F2B183631E062B40F24F867F
S315100133B0BB6CD8051CD5590501F127811BF8011CD9
S315100133C065290BF1FF3309F1FF340BD0452909D0DB
S315100133D0F86C524605F0D4F81BF8021CA9F1020448
S315100133E0ABF10203F86C5246A1469B4605F0C8F8AC
S315100133F0BB6C13F010027FF4D7AD03F4C063B3F5C1
S31510013400806F8BF8002000F00F857B69002B41F04F
S3151001341023800022F96AF86C03F0B4FCBA6C7B6B5A
S31510013420D20705460E4603F1040440F129861B68AE
S31510013430C3E900563B6C7C6301333B64B4E56B1EF8
S31510013440B3F5AE7F88BF6FF4AE7207F5B8738CBF54
S31510013450A9180021FB621E46BA6B7964534644F4DF
S315100134605864CA4688BF40F25D154FF0000B994665
S31510013470D9F8000090F800C0ACF12B034D2B62D89F
S31510013480DFE813F0B5026100B502610061001E03A9
S315100134901502150215021502150215021502BB02B7
S315100134A0BB026100610061006100610061006100A1
S315100134B04E004E004E004E004E004E00610061005F
S315100134C061006100610061006100610061006100DD
S315100134D06100610061006100610061006100A90283
S315100134E061006100610061006100610061006100BD
S315100134F04E004E004E004E004E004E00610061001F
S31510013500610061006100610061006100610061009C
S315100135106100610061006100610061006100A90242
S315100135200A2A10DD24F4386406F801CBD9F80430E0
S31510013530013B002BC9F8043040F3DD820130C9F894
S315100135400000013D94D14B46E005D146BA639A4637
S3151001355007D5FB6A9E4200F27984FB6A9E4200F00F
S31510013560E18214F0100211D1BB6BF96ABD6AF86CD5
S315100135703270A8477B6BA10603F1040540F14C8418
S315100135801B6818603B6C7D6301333B64FB6AF61A5A
S315100135905E44B14408E5002D08BF4FF0FF35E00742
S315100135A004F0100340F1EB82002B40F0BF847E6BD8
S315100135B0210656F8042BBA6440F15D877B64002A14
S315100135C000F0B082802001F05DF97B6C0246002884
S315100135D000F01787B96C0860F86BC48881888C4233
S315100135E080F007860068B96C40F82410F96B7E6389
S315100135F00134CC8096464FF0200CDAF80010AF4E0D
S31510013600097816F801B01BF0080B70D1C7F81C80A9
S315100136103E62C7F830E02E46C7F844C098461546B4
S3151001362001F0C4FC58453FF405ADDAE9003207F55F
S31510013630B8710846F96213F8011B00F80B10013A2C
S31510013640CAE900327B6A032B0BF1010B07F16804FF
S3151001365002D12368042B04D008220021204601F050
S315100136600FFC0094FA6AF86C5B46294601F0DEFB02
S31510013670421C78623FF4DEAC002800F00C867B6AAF
S3151001368002331ED0286804F051FC002840F07A87D6
S315100136907B6A032BD94402D12368042B00D0013E47
S315100136A0B8F1000F40F0E386BB6C0435002B00F037
S315100136B0DE863B6BEC1A7B6CB3EBA40F40F294875E
S315100136C0C346DAF80430002B40F32887DAF80030C5
S315100136D03A6A1B78D35C180701D4002EA0D1434651
S315100136E0D7F830E0D7F844C0D7F81C802A46002B0B
S315100136F07FF45AAC1360BB6C33B1A2EB0E0293107C
S3151001370001339C4500F211863B6C01333B644BE45B
S31510013710002D08BF4FF0FF35E60704F0100240F107
S315100137209D82002A40F03E84796B240651F8043BB1
S315100137307B63396240F1AA86BA64002B00F0F281EC
S31510013740802001F09FF8BA6C8346002800F0598654
S315100137507B6B1860FB6BDC8899888C4280F0358511
S3151001376018687B6B40F82430FB6BC7F830B0013416
S31510013770DC802023FB627C6AC7F81C8000267A64F1
S31510013780A84601F013FCB0423FF454ACDAE900321A
S3151001379007F5B87013F8011B8155013A032CCAE9D4
S315100137A0003206F1010607F1600502D12B68042BE0
S315100137B004D008220021284601F062FB0095F86C1E
S315100137C0334607F5B872594601F030FB0446601CC2
S315100137D03FF430AC002C40F0F283CBF80040234686
S315100137E00822002107F16800BB6401F049FBBB6C9C
S315100137F01A46334BD3F8E030BB64D7E912C007F150
S31510013800680307F15001E04701280CBF97F85030C3
S31510013810002307F17002D35C002B00F03E86032CC7
S31510013820B14400F0D58308F1FF387B6C002B40F0D2
S31510013830C4837B6B0BF1040B002B00F0BE833B6B37
S31510013840ABEB0305FB6AB3EBA50F40F2D8837E6C95
S31510013850DAF80430002B40F3A382B8F1000F90D1AF
S315100138607A6CD7F81C807C627AB97B6BCBF8002016
S3151001387043B13B6BF96AABEB03039A1001329142E8
S3151001388000F2A7863B6C01333B643B6A7B63FFF70F
S315100138908BBBB96C0E057FF57CAD7B6C1B197FF468
S315100138A078AD1C4621F4C073C7E911435CE5054B9D
S315100138B024F4386433F9122036E600BFD908021011
S315100138C02404002070080210B96C01F41863B3F5D2
S315100138D0807F7FF45EAD3B6B012B7FF45AAD21F4F3
S315100138E0807343F40063BB6430230BF8013B002360
S315100138F0013D3B6338E5062C7FF44BAD072433E5D8
S31510013900BB6C1E057FF545ADB96C01F4A063B3F52B
S31510013910806F05D049057FF53CAD3B6B002B48D038
S31510013920BB6C9B0504D43B6BB9695B1AC7E904B33D
S31510013930BB6C23F4786343F4C073BB6400233B630D
S3151001394012E57B6C002B40F01D823B6B33B9BB6CCF
S3151001395003F4E063B3F5E06F00F00686012C00F086
S315100139600D82042C00F00A8213E5072C7FF411ADA9
S315100139700824F9E4BB6C190500F10C827B6C012B50
S315100139807FF407AD02237B64EEE4BB6C18067FF56A
S3151001399000AD23F08003BB64E6E4002C40F0E9811E
S315100139A03B6B8BBBBB6C03F4E063B3F5E06F00F0CC
S315100139B0CD850023D7F820803B63F0E4BB6C1B0553
S315100139C000F1D181022C7FF4E4AC0324CCE4B96C70
S315100139D0080599D561E704F4C063B3F5007F7FF458
S315100139E0B2AD24F4007444F4A06410229CE52306BD
S315100139F07FF5A9AD24F0800496E5944B33F9122096
S31510013A00082A3FF78FAD9EE5D7F82080BB6C23F4CB
S31510013A108073BB64C3E444F00104DAF80430002B6C
S31510013A2088464FF0020B3FF7B8ABF86C514604F0DD
S31510013A30E3FD00287FF4FEAA60063FF5B1ABDAF884
S31510013A400020834E1378F35C19077FF5A9AB334633
S31510013A5056469A4605E0326013781AF803301B076A
S31510013A6015D57368013B002B09F10109736002F149
S31510013A700102F0DCF86C314604F0BEFD002840F07E
S31510013A80E382326813781AF803301B07E9D4B24679
S31510013A90FFF786BB44F001046E4BBB620A238846CE
S31510013AA0BB634FF0030BFFF773BB44F001046A4B82
S31510013AB0BB6208238846BB634FF0030BFFF768BB55
S31510013AC023057FF531AD12B944F40074082261055E
S31510013AD000F19E817B6C24F4607413B1013B7B640D
S31510013AE00135D9F80430013B002B0BF1010BC9F854
S31510013AF004303FF723ADF86CBA64494604F07CFDF7
S31510013B00BA6C00283FF41DAD1DE5FD6AAB4540F2C8
S31510013B101481FC6C1BF8011D5246204604F030FD41
S31510013B20AB45F7D1FB6BFFF790BAF86C514604F031
S31510013B3063FD00287FF42DAC002D7FF466AB28E4DD
S31510013B40DAF80420FC6C10E0DAF8003040491A78F3
S31510013B508A5C110703F101037FF526AADAF804201E
S31510013B60013ACAE9003209F10109002AECDC514691
S31510013B70204604F041FD0028E6D0FFF715BA002BC8
S31510013B8040F09583D7F834B014F080025BF8046BDB
S31510013B90BE6400F04684002EC4D0202000F072FED0
S31510013BA00446002800F02D84FB6B30609A88DE886D
S31510013BB0964280F073821868BB6C40F82630FB6B16
S31510013BC00136DE8020237B64DAF80000204E02786D
S31510013BD0B25C130700F1E48243462246B0462646FC
S31510013BE0DAF804100139CAF80410411CCAF8001099
S31510013BF03446017804F8011BB96C21B1796CA61A07
S31510013C008E4280F01984013D0CD0DAF80410002997
S31510013C10264640F36284DAF80000017818F801109C
S31510013C200907DDD5A21A98469144511CBB6C002296
S31510013C3022701BB17B6C8B4200F245843B6CC7F83A
S31510013C4034B001333B64FFF7AFB900BF70080210FF
S31510013C50D90802107D710110CD780110002A40F0AB
S31510013C606E817B6B14F0800453F804BBBB6400F0C7
S31510013C700984BBF1000F3FF455AF202000F002FE7E
S31510013C800646002800F0BD83FA6BCBF80000D488F5
S31510013C9093889C4280F086821068FB6B40F824B0B2
S31510013CA00134DC802023DAF8001007F1700208785D
S31510013CB0105C00283FF436AFC7F84490C7F834803B
S31510013CC0D946344698469346DAF804004B1C013817
S31510013CD0CAE900303046097800F8011BB9F1000F26
S31510013CE002D0061B46456BD20646013D0BD0DAF8CB
S31510013CF00410002940F37181DAF8001008781BF8D6
S31510013D0000000028E0D1341BCB464346D7F8449037
S31510013D10D7F834803FF406AF00223270BBF1000FA2
S31510013D2003D0611C8B4200F2E5833B6C01333B648B
S31510013D30BB6C7B63A144FFF737B9FB6B002B7FF498
S31510013D4086A9FFF788B914F08F0F7FF4EBAE05EB58
S31510013D50850502EB4505303DFFF706BA88464FF05B
S31510013D60040BFFF715BA7B6C1B197FF42BAEFFF70B
S31510013D70F5BA032C02D0052C7FF40BAB0134E4B257
S31510013D80FFF7F2BA7B6C022B7FF4E8AD03237B6459
S31510013D90FFF7EABA7B6C1B197FF4F0ADFFF7DEBAB9
S31510013DA0F86C514604F028FC00283FF456AD7A6CA5
S31510013DB0D7F81C807C62002E3FF456ADFFF73AB956
S31510013DC04FEA48082046414601F0F4FA0446002815
S31510013DD000F017830644C9F8000086E744F400741E
S31510013DE0B84BBB6210238846BB634FF0030BFFF73A
S31510013DF0CFB923F08003BB643B6B01333B63FB6894
S31510013E00002B3FF4B3AAFB68013BFB60FFF7AFBA87
S31510013E1024F4B064FFF788BB220740F113827B6B51
S31510013E201B681870FFF7AEBB3A6BBB699A423FF439
S31510013E30F0AA9A1A07F2C3239B4528BF07F2C22B91
S31510013E40A149584604F08AF8FFF7E3BA16F8011C9F
S31510013E50F86C5246013E04F093FBFFF77EBB07F167
S31510013E60700001F0B9FD44F0400480464FF0010B9B
S31510013E70FFF78EB9954BBB6200238846BB634FF0A3
S31510013E80030BFFF785B923077FF44CAE98F8012091
S31510013E90682A00F0CF8144F004048846FFF7FDB884
S31510013EA044F408749CE7E50600F1F5807B6B200766
S31510013EB053F8042B00F1F881660740F12583A2F827
S31510013EC000907B638846FFF76FB814F08F037FF479
S31510013ED029AEFA6B002A00F0A98298F8012044F065
S31510013EE080048846FFF7D9B822077FF41BAE98F8ED
S31510013EF001206C2A00F0968144F001048846FFF7F0
S31510013F00CCB8704BBB620A238846BB634FF0030BD8
S31510013F10FFF73EB925437FF405AE98F8012010242A
S31510013F208846FFF7BAB88846FFF758B84FF0000C25
S31510013F30E646C7F848C007F15402FFF75EBBDAF848
S31510013F40003007F170021978515C00293FF4F5AE83
S31510013F500133CAF80030DAF80430012D03F1FF33CA
S31510013F60CAF804301BD0FC6C164610E0DAF80030A3
S31510013F701A78B25C013392B1CAF80030DAF804301B
S31510013F800BF1010B013B5D45CAF8043007D0002B3C
S31510013F90ECDC5146204604F02FFB0028E6D0D9442C
S31510013FA0FFF702B87B6B3B620023C7E90B337B63D8
S31510013FB007F154039B46FFF7DEBB002648E4A11C1C
S31510013FC03FF446ACDBF800305A1C7FF409AC20E410
S31510013FD02B68042B7FF427AC27E4F86C514604F0C8
S31510013FE00BFB00283FF488AEA642CB464346D7F8D2
S31510013FF04490D7F834803FF41DA8341B8CE6386BF7
S31510014000D9001E4601F0D6F93863002800F0F9816F
S315100140107A6B730000EB050B7E6C1060FB6217E484
S31510014020B96C21F4207123465846B9643246F969B0
S31510014030BC689946AA467D6803F0B0FF3B6BBB612D
S31510014040013D8346FFF793B9B246FEF7F3BF022C43
S3151001405040F2EA82032C3FF4ABA9043CE5B2EC43EF
S31510014060FE6C5C441BF8011D5246304604F088FA7A
S315100140705C45F7D109F1FF39A9EB0509FFF798B9A5
S315100140807B6BD3F800B0BB6C9A0740F1F580CBE996
S315100140900056FFF7CFB98846FEF786BF4FF6F67181
S315100140A08A4264D8FB6B083292B218687A6491001E
S315100140B001F080F900285AD0FB6B7A6C9A8018604F
S315100140C07AE500BFCD780110680802107D710110E4
S315100140D004F01003012D38BF01251A46BB6414F0F4
S315100140E0010340F02D81BA6C002A40F0B582D7F851
S315100140F034B023065BF8046B40F1C582002E3FF401
S3151001410011AD284600F0BEFB0446002800F0798167
S31510014110F96B3060CB888A889342C0F000834FF6E2
S31510014120F6718A427B6422D8FB6B083292B2186808
S31510014130BA64910001F03EF9C8B1FB6BBA6C9A8072
S3151001414018607B6CFA6B40F823600133D380CDF88D
S3151001415000A02146F86C2B46012204F069FA0446A8
S31510014160002840F0DE823B6C002B40F0E482FB6BB2
S31510014170DE8818687EB10024051FA046814655F8D1
S31510014180043F186800F086FB01342B68A642C3F879
S315100141900080F4D148464FF0FF333B64FEF758BF19
S315100141A0012143E54FF6F6729342E0D8FA6B0833D4
S315100141B09BB210687B64990001F0FCF80028D6D0F8
S315100141C0FA6B7B6C9380106067E54FF6F67081424F
S315100141D0BA64CCD80831FB6B8EB21868B10001F005
S315100141E0E9F80028C3D0FB6BBA6C9E801860FFF704
S315100141F0B8BA4FF6F67081427B637A64B7D8083144
S31510014200FB6B1FFA81FB18684FEA8B0101F0D2F89C
S315100142100028ACD0FB6B7A6CA3F804B018607B6BEA
S31510014220FFF7E1B998F8022044F0020408F10208F8
S31510014230FEF733BF98F8022044F0080408F102088B
S31510014240FEF72BBF63076BD414F0010240F07B819C
S31510014250A40740F17881C14BB96AF86C9942BB6BDE
S31510014260F96A00F0F08103F033FD0B467A6B1168A1
S31510014270C1E90003FFF786B902460B460BF048FE6B
S31510014280002840F0C780284631460BF09FFECBF838
S315100142900000FFF7CFB8286003F048FE002840F071
S315100142A07181D944FFF7FBB982F8009009E6DAF873
S315100142B00030AB4E1A78B25C11073EF575AE01337C
S315100142C0CAF80030DAF80430012D03F1FF33CAF8C9
S315100142D0043008BF09F101093EF466AED7F84CB0B7
S315100142E0012412E0DAF800301A78B25C120703F1F1
S315100142F0010312D4CAF80030DAF804300134013B54
S31510014300A542CAF8043000F03A81002BEADC514686
S31510014310584604F071F90028E4D0A144FEF744BED2
S315100143207B6B1B681880FFF72DB9BC6C111D2068BB
S3151001433001F040F800283FF4E7A92060FFF7E4B93F
S31510014340002A40F084817B6B1A46240652F8043BFE
S315100143507A6300F1AC819B46BB6C1A469C46C7F842
S315100143603080002664467B64904600F01FFEB04202
S315100143703EF460AEDAE9003213F8011B013ACAE9DC
S3151001438000327A6A07F5B870032A815506F10103DE
S3151001439007F1680602D13268042A06D008220021E4
S315100143A03046FB6200F06CFDFB6A009607F5B872A9
S315100143B0F86CFB62594600F039FD02467862501CD2
S315100143C03EF438AEFB6A002A40F0BD819944BB6CBD
S315100143D0013D002B40F0C581CBF800307B6C002BE2
S315100143E000F0F181ABEB0406B8EBA60F00F2EB81FE
S315100143F020464FEAC80100F0DDFF0446002840F0D0
S31510014400DC81FB6B002B7FF4B2AE4FF0FF333B64C4
S31510014410FEF721BE534801F02BFBCBF80000FFF746
S3151001442009B8BC6CC7E91122FFF7CEBB82B0CDE942
S31510014430023302ABFB6350E57B634B001046194612
S315100144407B6400F0B7FF02460028DAD0BB6C8419F2
S3151001445018607B6BFFF7D7BB386901460A23013118
S315100144608346F86C02F08AFE7B69C21AE2E44FF0C9
S31510014470000BFFF726B9BA6C7E639C469E46BB6459
S31510014480FFF7BBB85E462346A3460CE4D7F834B013
S315100144907A63C7E90B22FFF76EB97A6CD7F81C80DD
S315100144A07C62002E3FF4E0A9FC6C1546013E07F52F
S315100144B0B8735246995D204604F062F8002EF5D184
S315100144C02A46FFF7D1B9BC6C206800F073FF0028AB
S315100144D03FF4B4AB2060FFF7B1BBF86C5146C7E9A6
S315100144E00C3204F089F8D7E90C3200283FF493AB6B
S315100144F0FFF798BBDBF8000000F05CFF00283FF4E3
S3151001450014ACCBF8000010E4E50735D4A40733D575
S315100145104FEAE970C2F800905060D2E4F86C514647
S3151001452004F06AF800283FF4D1A84346D7F830E0E2
S31510014530D7F844C0D7F81C802A46BBF1000F7EF489
S3151001454079ADFFF7D4B87B6BFFF71AB8BB6C23F4C0
S31510014550F063BB640124FEF707BF00BFCD780110DD
S31510014560D908021050060210BB6C23F4F063BB6429
S3151001457001237B64FEF7F8BEC2F80090A1E4A944BA
S31510014580FEF712BD4346D7F830E0D7F844C0D7F846
S315100145901C802A46BBF1000F3FF4A9A83D63FC6CB1
S315100145A0FD6AC7F844905E46F146C3463B62E04653
S315100145B0013E5246A95D204603F0E2FF002EF7D1D7
S315100145C0CE46C4463A6BD7F844903B6AD846FFF7B5
S315100145D08EB87C6B191D206800F0ECFE00283FF4A4
S315100145E051A92060FFF74EB9386BD90000F0E2FEF1
S315100145F0386300283FF405AF7B6CBA6C5B00051974
S3151001460010607B64C346FFF75CB8FD6AAB457FF665
S3151001461094ABFC6C1BF8011D5246204603F0B0FF0B
S31510014620AB45F7D1FFF77EBAFB6A9B457FF685ABA3
S31510014630FC6A1BF8011DF86C524603F0A1FFA34555
S31510014640F7D1FFF76FBA03F043FC0B460EE60022D3
S3151001465094461346934682E61C46DAE900239D42A8
S3151001466002EB030151DDCAF80010F86C51461C44E7
S31510014670ED1A03F0C1FF0028EFD0002C3EF4DAAC9E
S31510014680A144FEF791BCCDF800A0F86C2B4631463B
S31510014690012203F0CDFF044600283EF4CBAC3B6C5F
S315100146A0C7F834B00133A1443B64FEF77DBC7B648B
S315100146B0002B3FF437AA802000F0E4F87B6C834688
S315100146C000283FF49EAEF96B1860CE888A88964210
S315100146D037D34FF6F6718A427B643FF648ADFB6BD2
S315100146E0083294B21868A10000F064FE00283FF465
S315100146F03EADFB6B9C8018607B6CFA6B40F82630E4
S315100147000136D680DC46202229E65B1B2A442C443E
S31510014710CAF80430CAF80020A144FEF745BC08685F
S3151001472010E58542BBD93068214600F043FE0028CA
S31510014730B5D03060B3E7BAF80C305B067EF586ACBF
S3151001474015E50868D9E77A6A911C34D0032A994489
S3151001475002D13368042B00D0013DBB6C002B3FF412
S315100147603DAE0026DAF80430002B13DD002D7FF460
S31510014770FCAD7B6C4246A446D7F8308023B1ABEB37
S315100147800C01B2EBA10F21D8BB6C002B7EF40CAC43
S31510014790FEF7BABFF86C514603F02EFF0028E5D09C
S315100147A042467B6CD7F83080A446002E7EF442AC8C
S315100147B0002BE4D1E8E71E46D4E77B6C00EB060B31
S315100147C018604FEA48080BF1040BCAE718687B64B6
S315100147D000F0F0FD0028D7D07B6C1860D4E700BF3D
S315100147E0F8B5436B446807460D46002B33D0636E0C
S315100147F0D90702D4A3899A0524D52E4607E0236842
S315100148005A1C22601B780A2B12D006F8013B6368EA
S31510014810013B002B6360F2DA2146384601F048F875
S315100148200A2805D0431C01D0C3B2EEE7AE4215D01B
S3151001483000233370636ED80702D4A3899B0505D56F
S315100148402846F8BDA06D00F0ADFBD6E7A06D00F0CF
S31510014850ABFB2846F5E700F067FFC8E7636ED9079B
S3151001486001D50020F8BDA3899A05FAD4A06D00F0F0
S315100148709BFBF6E7024B01461868FFF7B1BF00BF75
S3151001488090050020024B0146186800F00BB800BFD6
S3151001489090050020024B0146186802F0D5BA00BFF8
S315100148A0900500202DE9F04F01F10B05162D85B06D
S315100148B0064624D8102900F2B18000F069FD1025B2
S315100148C018234FF0020CBA4F3B44A3F108025C685F
S315100148D0944200F022816368E268A16823F0030321
S315100148E0CA602344304691605A6842F001025A6008
S315100148F0083400F053FD204605B0BDE8F08F35F0C1
S31510014900070500F18B80A94200F2888000F040FD76
S31510014910B5F5FC7FC0F073816B0A00F08380042B20
S3151001492000F22281AB0903F1390C03F1380E4FEA7B
S31510014930CC039F4F3B44A3F108005C68A04207D10A
S315100149400DE0002AE16880F2E280884207D00C4629
S31510014950636823F003035A1B0F2AF2DDF446DFF8CE
S3151001496054823C69444500F0BF80636823F0030913
S31510014970A9EB05030F2B00F34781002BC7E9048828
S3151001498080F23181B9F5007FD7F804E080F0CC8050
S315100149904FEAD90101314FEA5919012303FA09F3F3
S315100149A057F83120A2604EEA030E07EBC103083B0C
S315100149B0E360C7F804E047F83140D4604FEAAC032E
S315100149C001209840704534D810EA0E0F07D12CF00B
S315100149D0030C400010EA0E0F0CF1040CF9D007EB92
S315100149E0CC0A5246E146D1680EE04B6823F0030328
S315100149F0A3EB050EBEF10F0F0C46C96800F3C1807B
S31510014A00BEF1000F80F2E2808A42EED109F101096E
S31510014A1019F0030F02F10802E5D121E10C233360ED
S31510014A20002468E74FF400734FF0400C4FF03F0E2F
S31510014A307FE7BC68636823F00309A94503D3A9EB93
S31510014A4005030F2B53DC5C4BDFF870B11B68082094
S31510014A5003F1100800F0B4FADBF8003001900133CD
S31510014A60A84404EB090205D008F1FF3880444342FB
S31510014A7003EA080841463046029203F00BFBB0F1F7
S31510014A80FF3F029A824600F0DC80824200F2D78014
S31510014A904B4B01991868404401F1FF311860844667
S31510014AA040F0FC801AEA010F40F0F880D7F808A010
S31510014AB0C84448F00102CAF80420424B19688142E1
S31510014AC038BF1860404B1968814238BF1860544688
S31510014AD022F00308A845A8EB050301D30F2B06DC2A
S31510014AE0304600F05BFC9BE7D7F804E066E76219F5
S31510014AF043F0010345F0010565603046BA60536025
S31510014B0000F04CFC0834204605B0BDE8F08FA268D1
S31510014B102344D16030468A60E6E6DC68A3427FF41E
S31510014B20DAAE0CF1020C1AE7B9F5206F4FEA5922E9
S31510014B307ED3142A00F2158102F15C03DB005B328D
S31510014B40F918FB580839994203D1F0E09B6899424C
S31510014B5004D05A6822F003024A45F7D8D968C4E945
S31510014B6002318C60DC6029E7142B6DD9542B00F2CD
S31510014B7001812B0B03F16F0C03F16E0E4FEACC037F
S31510014B80D7E63046A668621945F001056560F16001
S31510014B908E604EF00101C7E90422C2F80880C2F8FE
S31510014BA00C80516044F803E000F0F8FB0834A2E6EB
S31510014BB01800002020000020801400201000002082
S31510014BC0501400207C140020781400202344304611
S31510014BD05A6842F001025A6054F8083FD9608B6056
S31510014BE000F0DCFB87E6A1443046D9F8043043F0E7
S31510014BF00103C9F80430083400F0D0FB7BE64FEA14
S31510014C00D50C05F108035EE6621943F0010145F082
S31510014C10010565603046C7E90422C2F80880C2F86A
S31510014C200C80516044F8093000F0B8FB083462E694
S31510014C304FEA991202F13903DB00383280E7BC42A0
S31510014C4024D0BC68626843E703F15C0C03F15B0E88
S31510014C504FEACC036DE65AF80839534540F0D8802F
S31510014C601CF0030F0CF1FF3CF5D17B6823EA00031E
S31510014C707B60400098423FF6DCAE18B9D9E6400099
S31510014C8009F104091842FAD0CC46A8E6614B0199FC
S31510014C90186808EB000C0139C3F800C0DBF80000F6
S31510014CA001301BBFAAEB02026244CBF800A01A60C6
S31510014CB01AF00702CDE9022342D0C2F10802019B84
S31510014CC09244D044134408EA01001A1A02EA010B6D
S31510014CD05946304603F0DEF9421C039B7AD0A0EB0D
S31510014CE00A0000EB0B081868C7F808A048F0010283
S31510014CF05844BC42CAF8042018603FF4DEAEB9F13C
S31510014D000F0F42D96168A9F10C0222F0070201F0D6
S31510014D10010111436160A1184FF0050C0F2AC1F86A
S31510014D2004C0C1F808C04AD8DAF80420C5E69210C2
S31510014D30012000FA02F24EEA020EC7F804E00EE76D
S31510014D40019B0AEB08020A409A1A02EA010B59461C
S31510014D50304603F09FF9431C039BC0D1DDF808B020
S31510014D60C1E7542A15D84FEA193202F16F03DB0055
S31510014D706E32E5E6B3F5AA7F15D8EB0B03F1780C85
S31510014D8003F1770E4FEACC03D3E50123CAF80430B9
S31510014D90A6E6B2F5AA7F25D84FEAD93202F17803F1
S31510014DA0DB007732CCE640F25452934225D8AB0C55
S31510014DB003F17D0C03F17C0E4FEACC03B9E53046C5
S31510014DC004F10801019302F03FF8019BD7F808A0FE
S31510014DD01868A9E7029A083A9044A8EB0A084FF016
S31510014DE0000B80E740F254539A420DD84FEA99428C
S31510014DF002F17D03DB007C32A2E64FF47E734FF0A5
S31510014E007F0C4FF07E0E94E54FF47E737E2297E66B
S31510014E107B682EE750140020024B13B1024800F0B4
S31510014E20C3BA704700000000754F011070B582B00B
S31510014E300446069D55B11048D0F8E46000956AB154
S31510014E402046B047431C10D002B070BD00F1F405E6
S31510014E500948D0F8E4600095002AF1D101231146E2
S31510014E602046064AB047431CEED100228A232A6007
S31510014E70236002B070BD00BF24040020500602104A
S31510014E80830730B547D0541E002A3ED0CAB2034616
S31510014E9001E0013C39D303F8012B9D07F9D1032C0D
S31510014EA02CD9CDB205EB05250F2C05EB054535D9CA
S31510014EB0A4F1100222F00F0C03F1100EE6444FEA92
S31510014EC0121C1A46156055609560D56010327245F0
S31510014ED0F8D10CF1010214F00C0F03EB021204F0DD
S31510014EE00F0C13D0ACF1040323F003030433134462
S31510014EF042F8045B9A42FBD10CF003042CB1C9B2FF
S31510014F001C4403F8011B9C42FBD130BD6446134679
S31510014F10002CF4D1F9E703461446C0E71A46A44615
S31510014F20E0E700BF70B50F4B0F4DAB42A3EB050683
S31510014F3007D0B610002455F8043B01349847A64211
S31510014F40F9D812F0EFFC094D094B5E1BAB424FEA43
S31510014F50A60606D0002455F8043B01349847A6420C
S31510014F60F9D870BDC00B0020C00B0020C00B00206B
S31510014F70C80B002038B5074D074C2C1BA41005D0C3
S31510014F80013C55F8043D9847002CF9D1BDE838404D
S31510014F9012F0CEBCCC0B0020C80B0020704700BF0E
S31510014FA0704700BF704700BF704700BF014B93F8B1
S31510014FB0280170472404002000487047140500207A
S31510014FC0082802D14FF48050704708B5FDF7C0FF8D
S31510014FD0162303604FF0FF3008BD00BF000000002C
S31510014FE002780B78012A28BF9A4240F0D8806DE9E1
S31510014FF0044540EA0104CDE902676FF0000C4FEA5F
S3151001500044721AB380EA010414F0070F6BD100F051
S31510015010070420F0070004F0030521F007014FEA09
S31510015020C505F0E8042314F0040FF1E804670CFA3F
S3151001503005F462EA040266EA04060BD063EA040385
S31510015040624667EA0407664604E000BFF0E80423F7
S31510015050F1E8046782FA4CF582EA0604A4FA8CF4A4
S315100150606CBB83FA4CF583EA0705A5FA8CF595B95D
S3151001507050E9022351E9026782FA4CF582EA0604E5
S31510015080A4FA8CF483FA4CF583EA0705A5FA8CF594
S315100150902543DBD09CB92DBAB5FA85F424F0070463
S315100150A027FA04F1DDE9026723FA04F303F0FF009E
S315100150B001F0FF01FDE80445A0EB0100704724BA99
S315100150C0B4FA84F424F0070426FA04F1DDE9026740
S315100150D022FA04F202F0FF0001F0FF01FDE8044597
S315100150E0A0EB0100704714F0030F3CD110F003043C
S315100150F028D150F8082B51F8083B82FA4CF582EA70
S315100151000305A5FA8CF55DB950F8042C51F8043C49
S3151001511082FA4CF582EA0305A5FA8CF5002DE8D042
S315100151202DBAB5FA85F424F0070423FA04F122FA0C
S3151001513004F202F0FF0001F0FF01FDE80445A0EBC7
S31510015140010070474FEAC40420F0030050F8082B01
S3151001515021F0030151F8083B0CFA04F462EA040247
S3151001516063EA0403C9E710F003041DD0A1EB04019F
S3151001517020F00300E40750F8042B06D012D28B78E6
S315100151805FFAA2F4E41A06D12BB1CB785FFAB2F426
S31510015190E41A00D133B920465DF8104B7047A2EBE3
S315100151A00300704701F1040150F8042BCC0721F0DC
S315100151B0030151F8043B48D824D222F07F4482FAE5
S315100151C04CF594EA1325A5FA8CF50AD165B951F86F
S315100151D0043B84EA0204B4EB036F0ED150F8042B9E
S315100151E0EBE74FEA132355E035F07F454DD10878AB
S315100151F0FDE80445C0F1000070474FEA126203F062
S31510015200FF0347E002EA1C4482FA4CF594EA13457F
S31510015210A5FA8CF50AD165B951F8043B84EA020462
S31510015220B4EB034F0CD150F8042BEBE74FEA1343C1
S3151001523030E015EA1C4528D10B884FEA124229E0C5
S315100152404FEA124203EA1C4324E002F0FF0482FAF9
S315100152504CF594EA1365A5FA8CF50AD165B951F89E
S31510015260043B84EA0204B4EB032F09D150F8042B52
S31510015270EBE74FEA13630DE015F0FF0F05D10B684D
S315100152804FEA122223F07F4304E04FF00000FDE8BD
S315100152900445704712BA1BBA82FA4CF482EA030427
S315100152A0A4FA8CF5B5FA85F402FA04F203FA04F3BA
S315100152B04FEA1260FDE80445A0EB1360704700BF8A
S315100152C00FB400B5074983B004AB086853F8042B33
S315100152D08168019304F0DAFF03B05DF804EB04B0C2
S315100152E0704700BF9005002070B5054688B0084686
S315100152F00C4600F005FB214E6A6B059001214318FF
S31510015300CDE9066104A8022104940393AC680190C7
S315100153100291002A2ED0626EB4F90C30D60701D450
S31510015320980521D5990406D4626E43F4005322F4EC
S315100153300052A3816266284601AA214602F0BCFEEC
S31510015340636E00280CBF0A254FF0FF35DA0702D429
S31510015350A3899B0502D5284608B070BDA06DFFF73D
S3151001536023FE284608B070BDA06DFFF71BFEB4F9E9
S315100153700C30D7E7284600F0D7F9CCE774040210B1
S31510015380024B01461868FFF7AFBF00BF900500201A
S315100153900148FFF707BE00BF881400200148FFF738
S315100153A003BE00BF88140020002301461A46184682
S315100153B007F02CBE10B4044C03460A46206810BCF4
S315100153C0194600F059BB00BF9005002038B5074DAE
S315100153D00022044608462A60FBF75AFD431C00D0FA
S315100153E038BD2B68002BFBD0236038BD94140020E8
S315100153F0B1F90C20F8B5074610070C4646D4496892
S3151001540042F400630029A3815CDDA56A002D3BD01F
S31510015410002112F480523E683960E1695ED10123A0
S315100154203846A847411C024668D0B4F90C30A56A23
S31510015430E1695B0705D56368D21A236B0BB1E36B80
S31510015440D21A00233846A847451C49D139681D2967
S315100154503CD8304AB4F90C300A4112F0010237D166
S3151001546062602269226023F40062A281DA044ED4BA
S31510015470216B3E6041B104F14003994202D0384696
S3151001548001F0E2FC002323630020F8BD0E69002E13
S31510015490FAD00D680E6091070CBF63690023AD1B2E
S315100154A0A3600CE0D4F824C0E1692B463246384695
S315100154B0E047B0F1000CA5EB0C05664406DD002DA6
S315100154C0F0DCE1E7E16B00299FDCDDE7B4F90C3094
S315100154D043F04003A3814FF0FF30F8BD226DA8E7DA
S315100154E0B4F90C302269226023F40062A281DB0434
